S02B0000446973706C61792072656164696E6773206F6620504F54206F6E204C434420646973706C61792E73E2
S11300000C9432000C944F000C944F000C944F004D
S11300100C944F000C944F000C944F000C944F0020
S11300200C944F000C944F000C944F000C944F0010
S11300300C944F000C944F000C940F020C944F003E
S11300400C944F000C944F000C944F000C944F00F0
S11300500C944F00710077007D00830089008F00AD
S113006095009B0011241FBECFE5D4E0DEBFCDBFB9
S113007010E0A0E6B0E0ECE1FAE002C005900D92D9
S1130080AC38B107D9F720E0ACE8B0E001C01D926C
S1130090A839B207E1F70E94F9020C940C050C94FC
S11300A000003E9A3F983D98389839983A983B9882
S11300B03C98309A319A329A339A78940895379AC0
S11300C0369A089584B125B1379890E0922B08951B
S11300D090E088309105A0F5FC01E65DFF4F0C949B
S11300E0E304389839983A983B983C980895389A9C
S11300F039983A983B983C9808953898399A3A98A0
S11301003B983C980895389A399A3A983B983C9889
S11301100895389839983A9A3B983C980895389AB3
S113012039983A9A3B983C9808953898399A3A9A6B
S11301303B983C980895389A399A3A9A3B983C9857
S11301400895613039F138F0623009F442C0633007
S113015009F45EC00895413069F44BB321E030E006
S1130160B90102C0660F771F8A95E2F7CB01842B91
S11301708BBB089541116AC04BB321E030E0B90153
S113018002C0660F771F8A95E2F7CB01809584231E
S11301908BBB0895413069F448B321E030E0B901E4
S11301A002C0660F771F8A95E2F7CB01842B88BBC8
S11301B0089541114BC048B321E030E0B90102C0B9
S11301C0660F771F8A95E2F7CB018095842388BB5D
S11301D00895413069F445B321E030E0B90102C02B
S11301E0660F771F8A95E2F7CB01842B85BB0895B0
S11301F041112CC045B321E030E0B90102C0660FC3
S1130200771F8A95E2F7CB018095842385BB0895F7
S1130210413069F442B321E030E0B90102C0660F15
S1130220771F8A95E2F7CB01842B82BB0895411195
S11302300DC042B321E030E0B90102C0660F771F60
S11302408A95E2F7CB018095842382BB08950097B9
S113025059F020E030E045E04A95F1F700002F5FC7
S11302603F4F82179307B9F70895CF93C82F88B3E8
S11302708F709C2F907F892B88BB41E061E080E0E8
S11302800E94A10040E061E081E00E94A10041E001
S113029061E082E00E94A10081E090E00E942701D9
S11302A040E061E082E00E94A10084E190E00E94CD
S11302B0270188B3282F2F7030E1C39FC001112478
S11302C0822B88BB41E061E082E00E94A10081E0D2
S11302D090E00E94270140E061E082E00E94A100DA
S11302E088EC90E00E942701CF910895CF93DF938B
S11302F0EC018881882331F021960E94350189918F
S11303008111FBCFDF91CF910895CF93C82F88B38C
S11303108F709C2F907F892B88BB40E061E080E048
S11303200E94A10040E061E081E00E94A10041E060
S113033061E082E00E94A10081E090E00E94270138
S113034040E061E082E00E94A10084E190E00E942C
S1130350270188B3282F2F7030E1C39FC0011124D7
S1130360822B88BB41E061E082E00E94A10081E031
S113037090E00E94270140E061E082E00E94A10039
S113038088EC90E00E942701CF910895613021F418
S113039081580E9485010895623019F481540E94A5
S11303A085010895009769F020E030E0EFE9FFE06F
S11303B03197F1F700C000002F5F3F4F821793077A
S11303C0A9F7089581E00E94850185E090E00E94EC
S11303D0D201089587B3876087BB87B3806F87BBDB
S11303E084E190E00E94D20140E061E082E00E945A
S11303F0A10083E30E94850182E30E94850188E2D3
S11304000E9485018CE00E9485010E94E20186E041
S11304100E94850185E090E00E94D20108951F9218
S11304200F920FB60F9211248F9381E0809397005F
S11304308F910F900FBE0F901F901895FC0143E011
S113044050E09F01ADECBCEC0E94E90496958795C1
S113045096958795969587959C01220F331F880F53
S1130460991F880F991F880F991F820F931F9F014F
S1130470281B390BC901805DDA01AF56BF4F8C933D
S11304809F01ADECBCEC0E94E904FC01F695E795F4
S1130490F695E795F695E7954150510990F681E96F
S11304A090E00895CF92DF92EF92FF920F931F9303
S11304B0CF93DF936B017C010E949E030AE010E05E
S11304C0CB01B8010E94CF04805DCCE8D0E08883E2
S11304D08EE2898320E030E040E251E4C701B601B6
S11304E00E9462040E949E03CB01B8010E94CF04C3
S11304F0805D8A8320E030E048EC52E4C701B60115
S11305000E9462040E949E03CB01B8010E94CF04A2
S1130510805D8B83CE01DF91CF911F910F91FF906E
S1130520EF90DF90CF9008950F931F93CF938C019A
S1130530C62F8091660090916700019690936700A2
S1130540809366008091660090916700892B91F4F6
S11305509091960081E089278093960080E09CEF3B
S113056090936700809366000E94E2018BE690E01E
S11305700E947601EC2FF0E0EE0FFF1FE05AFF4FD0
S11305808081918162E00E94C60180919600882357
S113059031F0C8010E941E020E94760118C0B80101
S11305A080E090E00E94D4032EEA37E449E950E465
S11305B00E94620420E030EC4FE754E40E942C03D4
S11305C00E9452020E94760186E70E943501CF9173
S11305D01F910F910895CF93C82F0E9462006C2F32
S11305E00E9494028C2F0E9468000E945F00CF91A9
S11305F008950E94EA010E9451008CE790E00E9455
S113060076012FEF87EA91E6215080409040E1F790
S113061000C000000E94E2012FEF87EA91E621501A
S113062080409040E1F700C000008BE690E00E941B
S11306307601809197008823E1F3C0E0D0E0FE01C9
S1130640E859FF4F80810E94EB0210929700219697
S1130650C330D105A1F7EDCF0E9440030C942804C8
S11306600E94210458F00E941A0440F029F45F3FCC
S113067029F00C94110451110C945C040C9417048B
S11306800E94390468F39923B1F3552391F3951B20
S1130690550BBB27AA2762177307840738F09F5F9F
S11306A05F4F220F331F441FAA1FA9F335D00E2E0C
S11306B03AF0E0E832D091505040E695001CCAF779
S11306C02BD0FE2F29D0660F771F881FBB1F26173C
S11306D037074807AB07B0E809F0BB0B802DBF0113
S11306E0FF2793585F4F3AF09E3F510578F00C94E2
S11306F011040C945C045F3FE4F3983ED4F38695B4
S113070077956795B795F7959F5FC9F7880F911D02
S11307109695879597F90895E1E0660F771F881FEE
S1130720BB1F621773078407BA0720F0621B730BA1
S1130730840BBA0BEE1F88F7E09508950E94A50379
S11307406894B1110C945C0408950E94410488F0EB
S11307509F5798F0B92F9927B751B0F0E1F0660F81
S1130760771F881F991F1AF0BA95C9F714C0B130C2
S113077091F00E945B04B1E008950C945B04672F30
S1130780782F8827B85F39F0B93FCCF386957795F1
S11307906795B395D9F73EF49095809570956195DA
S11307A07F4F8F4F9F4F0895E89409C097FB3EF405
S11307B090958095709561957F4F8F4F9F4F9923AA
S11307C0A9F0F92F96E9BB279395F6958795779528
S11307D06795B795F111F8CFFAF4BB0F11F460FFE8
S11307E01BC06F5F7F4F8F4F9F4F16C0882311F040
S11307F096E911C0772321F09EE8872F762F05C054
S1130800662371F096E8862F70E060E02AF09A95EE
S1130810660F771F881FDAF7880F9695879597F9E3
S1130820089597F99F6780E870E060E008959FEF6E
S113083080EC089500240A94161617061806090673
S1130840089500240A941216130614060506089542
S1130850092E0394000C11F4882352F0BB0F40F4CA
S1130860BF2B11F460FF04C06F5F7F4F8F4F9F4F0A
S1130870089557FD9058440F551F59F05F3F71F08C
S11308804795880F97FB991F61F09F3F79F08795F3
S11308900895121613061406551FF2CF4695F1DF7C
S11308A008C0161617061806991FF1CF869571050C
S11308B0610508940895E894BB2766277727CB0140
S11308C097F908950E9475040C9428040E941A0450
S11308D038F00E94210420F0952311F00C941104A7
S11308E00C94170411240C945C040E94390470F3D2
S11308F0959FC1F3950F50E0551F629FF001729FC1
S1130900BB27F00DB11D639FAA27F00DB11DAA1FCF
S1130910649F6627B00DA11D661F829F2227B00D1C
S1130920A11D621F739FB00DA11D621F839FA00DA7
S1130930611D221F749F3327A00D611D231F849FF7
S1130940600D211D822F762F6A2F11249F5750404E
S11309509AF0F1F088234AF0EE0FFF1FBB1F661FC9
S1130960771F881F91505040A9F79E3F510580F092
S11309700C9411040C945C045F3FE4F3983ED4F3AC
S1130980869577956795B795F795E7959F5FC1F736
S1130990FE2B880F911D9695879597F9089597FBDF
S11309A0072E16F4009407D077FD09D00E94F804AE
S11309B007FC05D03EF4909581959F4F089570955E
S11309C061957F4F0895EE0FFF1F0590F491E02D80
S11309D00994A29FB001B39FC001A39F700D811D14
S11309E01124911DB29F700D811D1124911D089534
S11309F0AA1BBB1B51E107C0AA1FBB1FA617B70741
S1130A0010F0A61BB70B881F991F5A95A9F780955C
S10F0A109095BC01CD010895F894FFCF2F
S1130A1C010007000D0000FC00010241444330209A
S1130A2C204144433120204144433200414443207B
S10F0A3C50726F6A656374202E2E000057
S9030000FC
