S02B0000446973706C61792072656164696E6773206F6620504F54206F6E204C434420646973706C61792E73E2
S11300000C9432000C944F000C944F000C944F004D
S11300100C944F000C944F000C944F000C944F0020
S11300200C944F000C944F000C944F000C944F0010
S11300300C944F000C944F000C94E8010C944F0066
S11300400C944F000C944F000C944F000C944F00F0
S11300500C944F0071007300760078007C007E00E1
S11300608100830011241FBECFE5D4E0DEBFCDBFE5
S113007010E0A0E6B0E0ECE7F9E002C005900D92D4
S1130080A838B107D9F720E0A8E8B0E001C01D9274
S1130090A539B207E1F70E94C0020C94BC040C9489
S11300A000003E9A3F983D98389839983A983B9882
S11300B03C98309A319A329A339A78940895379AC0
S11300C0369A089584B125B1379890E0922B08951B
S11300D090E088309105E0F4FC01E65DFF4F0C945C
S11300E0B604389801C0389A399804C0389801C0C9
S11300F0389A399A3A980AC0389801C0389A399887
S113010004C0389801C0389A399A3A9A3B983C9876
S11301100895613031F138F0623009F440C0633041
S113012009F45BC00895413061F44BB321E030E041
S1130130B90102C0660F771F8A95E2F7CB01842BC1
S11301400EC0411167C04BB321E030E0B90102C0D9
S1130150660F771F8A95E2F7CB01809584238BBBCA
S11301600895413061F448B321E030E0B90102C0A0
S1130170660F771F8A95E2F7CB01842B0EC04111DD
S113018049C048B321E030E0B90102C0660F771FCF
S11301908A95E2F7CB018095842388BB089541308A
S11301A061F445B321E030E0B90102C0660F771F66
S11301B08A95E2F7CB01842B0EC041112BC045B3C5
S11301C021E030E0B90102C0660F771F8A95E2F79B
S11301D0CB018095842385BB0895413061F442B3FB
S11301E021E030E0B90102C0660F771F8A95E2F77B
S11301F0CB01842B0EC041110DC042B321E030E08D
S1130200B90102C0660F771F8A95E2F7CB0180958A
S1130210842382BB089520E030E02817390739F0A1
S113022045E04A95F1F700002F5F3F4FF6CF089560
S1130230CF93C82F88B38F709C2F907F892B88BB56
S113024041E061E080E00E94890040E061E081E0FB
S11302500E94890041E061E082E00E94890081E01F
S113026090E00E940B0140E061E082E00E9489007E
S113027084E190E00E940B0188B3282F2F7030E1B5
S1130280C39FC0011124822B88BB41E061E082E05E
S11302900E94890081E090E00E940B0140E061E04F
S11302A082E00E94890088EC90E0CF910C940B01CD
S11302B0CF93DF93EC018991882319F00E941801F0
S11302C0FACFDF91CF910895CF93C82F88B38F7061
S11302D09C2F907F892B88BB40E061E080E00E94E6
S11302E0890040E061E081E00E94890041E061E032
S11302F082E00E94890081E090E00E940B0140E0CE
S113030061E082E00E94890084E190E00E940B0198
S113031088B3282F2F7030E1C39FC0011124822B92
S113032088BB41E061E082E00E94890081E090E0C6
S11303300E940B0140E061E082E00E94890088ECA9
S113034090E0CF910C940B01613011F4815803C0FB
S1130350623019F481540C946401089520E030E073
S11303602817390749F0EFE9FFE03197F1F700C0AA
S113037000002F5F3F4FF4CF089581E00E94640195
S113038085E090E00C94AE0187B3876087BB87B3A8
S1130390806F87BB84E190E00E94AE0140E061E0A1
S11303A082E00E94890083E30E94640182E30E9448
S11303B0640188E20E9464018CE00E9464010E944E
S11303C0BD0186E00E94640185E090E00C94AE01DA
S11303D01F920F920FB60F9211248F9381E0809396
S11303E094008F910F900FBE0F901F901895E1E924
S11303F0F0E02AE030E0B9010E948E04805D82932F
S1130400CB0140E0ED38F407B1F78DE890E00895B2
S1130410CF92DF92EF92FF920F931F93CF93DF93CC
S11304206B017C01C8E8D0E00E945D030AE010E0A3
S1130430CB01B8010E94A204805D88838EE2898387
S113044020E030E040E251E4C701B6010E942104FB
S11304500E945D03CB01B8010E94A204805D8A83DF
S113046020E030E048EC52E4C701B6010E942104C8
S11304700E945D03CB01B8010E94A204805D8B83BE
S1130480CE01DF91CF911F910F91FF90EF90DF90FC
S1130490CF9008950F931F93CF938C01C62F809113
S11304A063009091640001969093640080936300CC
S11304B08091630090916400892B91F49091920053
S11304C081E089278093920080E09CEF9093640000
S11304D0809363000E94BD0188E690E00E94580169
S11304E0EC2FF0E0E05AFF4F808162E00E94A4010B
S11304F080919200882341F0C8010E94F701CF91B6
S11305001F910F910C945801B80180E090E00E9473
S113051093032EEA37E449E950E40E94210420E0E1
S113052030EC4FE754E40E94EB020E9408020E9460
S1130530580186E7CF911F910F910C941801CF9326
S1130540E091930081E08E0F80939300F0E0EB59EB
S1130550FF4FC0810E9462006C2F0E944A0280916A
S11305609300833011F410929300E0919300F0E033
S1130570EB59FF4F80810E946800CF910C945F007B
S11305800E94C4010E94510089E790E00E94580132
S11305902FEF87EA91E6215080409040E1F700C0B8
S11305A000000E94BD012FEF87EA91E621508040B0
S11305B09040E1F700C0000088E690E00E945801F6
S11305C00E945F00809194008823E1F30E949F02BF
S11305D010929400F7CF0E94FF020C94E7030E944C
S11305E0E00358F00E94D90340F029F45F3F29F05A
S11305F00C94D00351110C941B040C94D6030E9448
S1130600F80368F39923B1F3552391F3951B550B24
S1130610BB27AA2762177307840738F09F5F5F4FD1
S1130620220F331F441FAA1FA9F335D00E2E3AF010
S1130630E0E832D091505040E695001CCAF72BD028
S1130640FE2F29D0660F771F881FBB1F2617370779
S11306504807AB07B0E809F0BB0B802DBF01FF27AB
S113066093585F4F3AF09E3F510578F00C94D003B5
S11306700C941B045F3FE4F3983ED4F3869577957E
S11306806795B795F7959F5FC9F7880F911D969564
S1130690879597F90895E1E0660F771F881FBB1FC0
S11306A0621773078407BA0720F0621B730B840B6D
S11306B0BA0BEE1F88F7E09508950E9464036894CE
S11306C0B1110C941B0408950E94000488F09F57F4
S11306D098F0B92F9927B751B0F0E1F0660F771F62
S11306E0881F991F1AF0BA95C9F714C0B13091F058
S11306F00E941A04B1E008950C941A04672F782F0D
S11307008827B85F39F0B93FCCF38695779567951C
S1130710B395D9F73EF490958095709561957F4F88
S11307208F4F9F4F0895E89409C097FB3EF490952E
S11307308095709561957F4F8F4F9F4F9923A9F0B6
S1130740F92F96E9BB279395F69587957795679545
S1130750B795F111F8CFFAF4BB0F11F460FF1BC089
S11307606F5F7F4F8F4F9F4F16C0882311F096E91C
S113077011C0772321F09EE8872F762F05C06623CA
S113078071F096E8862F70E060E02AF09A95660F83
S1130790771F881FDAF7880F9695879597F908953C
S11307A097F99F6780E870E060E008959FEF80EC20
S11307B0089500240A9416161706180609060895C3
S11307C000240A9412161306140605060895092E29
S11307D00394000C11F4882352F0BB0F40F4BF2B98
S11307E011F460FF04C06F5F7F4F8F4F9F4F0895D8
S11307F057FD9058440F551F59F05F3F71F04795CE
S1130800880F97FB991F61F09F3F79F087950895B2
S1130810121613061406551FF2CF4695F1DF08C0D1
S1130820161617061806991FF1CF869571056105EE
S113083008940895E894BB2766277727CB0197F996
S113084008950E9434040C94E7030E94D90338F0FD
S11308500E94E00320F0952311F00C94D0030C9433
S1130860D60311240C941B040E94F80370F3959F83
S1130870C1F3950F50E0551F629FF001729FBB2793
S1130880F00DB11D639FAA27F00DB11DAA1F649F2F
S11308906627B00DA11D661F829F2227B00DA11DE2
S11308A0621F739FB00DA11D621F839FA00D611D68
S11308B0221F749F3327A00D611D231F849F600D89
S11308C0211D822F762F6A2F11249F5750409AF0B2
S11308D0F1F088234AF0EE0FFF1FBB1F661F771F3E
S11308E0881F91505040A9F79E3F510580F00C9409
S11308F0D0030C941B045F3FE4F3983ED4F3869535
S113090077956795B795F795E7959F5FC1F7FE2BA8
S1130910880F911D9695879597F90895AA1BBB1B7F
S113092051E107C0AA1FBB1FA617B70710F0A61BEB
S1130930B70B881F991F5A95A9F780959095BC010C
S1130940CD01089597FB072E16F4009407D077FD88
S113095009D00E948E0407FC05D03EF49095819541
S11309609F4F0895709561957F4F0895EE0FFF1F77
S10F09700590F491E02D0994F894FFCF59
S113097C01070D00FC000102414443302020414496
S113098C4331202041444332004144432050726F90
S10B099C6A656374202E2E002D
S9030000FC
